{
  "contractName": "Lottery",
  "abi": [
    {
      "inputs": [],
      "name": "testLottery",
      "outputs": [],
      "stateMutability": "nonpayable",
      "type": "function"
    }
  ],
  "bytecode": "0x6080604052348015600f57600080fd5b50606d80601d6000396000f3fe6080604052348015600f57600080fd5b506004361060285760003560e01c80630e5fe4dc14602d575b600080fd5b60336035565b005b56fea26469706673582212206049f326ce627a17cffa8aaa7febfe977d6cf229f0ce08a7fa66939061ca4ef464736f6c634300080b0033",
  "immutableReferences": {},
  "source": "// SPDX-License-Identifier: MIT\r\npragma solidity >=0.4.22 <0.9.0;\r\n\r\ncontract Lottery {\r\n  function testLottery () public {\r\n    \r\n  }\r\n}",
  "sourcePath": "C:\\Users\\USER\\dasom\\web3\\github.com\\dasom222g\\lottery-smart-contract\\contracts\\Lottery.sol",
  "compiler": {
    "name": "solc",
    "version": "0.8.11+commit.d7f03943.Emscripten.clang"
  },
  "schemaVersion": "3.4.5",
  "updatedAt": "2022-02-26T14:40:37.288Z",
  "devdoc": {
    "kind": "dev",
    "methods": {},
    "version": 1
  },
  "userdoc": {
    "kind": "user",
    "methods": {},
    "version": 1
  }
}